{
  "_format": "hh-sol-artifact-1",
  "contractName": "WavePortal",
  "sourceName": "contracts/WavePortal.sol",
  "abi": [
    {
      "inputs": [],
      "stateMutability": "nonpayable",
      "type": "constructor"
    },
    {
      "anonymous": false,
      "inputs": [
        {
          "indexed": true,
          "internalType": "address",
          "name": "from",
          "type": "address"
        },
        {
          "indexed": false,
          "internalType": "uint256",
          "name": "timestamp",
          "type": "uint256"
        },
        {
          "indexed": false,
          "internalType": "string",
          "name": "message",
          "type": "string"
        }
      ],
      "name": "NewWave",
      "type": "event"
    },
    {
      "inputs": [],
      "name": "getAllWaves",
      "outputs": [
        {
          "components": [
            {
              "internalType": "address",
              "name": "waver",
              "type": "address"
            },
            {
              "internalType": "string",
              "name": "name",
              "type": "string"
            },
            {
              "internalType": "uint256",
              "name": "timestamp",
              "type": "uint256"
            },
            {
              "internalType": "string",
              "name": "message",
              "type": "string"
            }
          ],
          "internalType": "struct WavePortal.Wave[]",
          "name": "",
          "type": "tuple[]"
        }
      ],
      "stateMutability": "view",
      "type": "function"
    },
    {
      "inputs": [],
      "name": "getName",
      "outputs": [
        {
          "internalType": "string",
          "name": "",
          "type": "string"
        }
      ],
      "stateMutability": "view",
      "type": "function"
    },
    {
      "inputs": [
        {
          "internalType": "string",
          "name": "_name",
          "type": "string"
        }
      ],
      "name": "setName",
      "outputs": [],
      "stateMutability": "nonpayable",
      "type": "function"
    },
    {
      "inputs": [],
      "name": "totalWaves",
      "outputs": [
        {
          "internalType": "uint256",
          "name": "",
          "type": "uint256"
        }
      ],
      "stateMutability": "view",
      "type": "function"
    },
    {
      "inputs": [
        {
          "internalType": "string",
          "name": "_message",
          "type": "string"
        }
      ],
      "name": "wave",
      "outputs": [],
      "stateMutability": "nonpayable",
      "type": "function"
    }
  ],
  "bytecode": "0x608060405234801561001057600080fd5b50610de3806100206000396000f3fe608060405234801561001057600080fd5b50600436106100575760003560e01c806317d7de7c1461005c578063291bcab31461007a578063449d46c014610098578063bd43a908146100b4578063c47f0027146100d2575b600080fd5b6100646100ee565b604051610071919061084c565b60405180910390f35b6100826101bd565b60405161008f9190610887565b60405180910390f35b6100b260048036038101906100ad91906109eb565b6101c3565b005b6100bc61040e565b6040516100c99190610bfa565b60405180910390f35b6100ec60048036038101906100e791906109eb565b6105f1565b005b6060600160003373ffffffffffffffffffffffffffffffffffffffff1673ffffffffffffffffffffffffffffffffffffffff168152602001908152602001600020805461013a90610c4b565b80601f016020809104026020016040519081016040528092919081815260200182805461016690610c4b565b80156101b35780601f10610188576101008083540402835291602001916101b3565b820191906000526020600020905b81548152906001019060200180831161019657829003601f168201915b5050505050905090565b60005481565b60016000808282546101d59190610cac565b925050819055506101ff604051806060016040528060278152602001610d87602791393383610648565b6000600160003373ffffffffffffffffffffffffffffffffffffffff1673ffffffffffffffffffffffffffffffffffffffff168152602001908152602001600020805461024b90610c4b565b80601f016020809104026020016040519081016040528092919081815260200182805461027790610c4b565b80156102c45780601f10610299576101008083540402835291602001916102c4565b820191906000526020600020905b8154815290600101906020018083116102a757829003601f168201915b50505050509050600260405180608001604052803373ffffffffffffffffffffffffffffffffffffffff16815260200183815260200142815260200184815250908060018154018082558091505060019003906000526020600020906004020160009091909190915060008201518160000160006101000a81548173ffffffffffffffffffffffffffffffffffffffff021916908373ffffffffffffffffffffffffffffffffffffffff1602179055506020820151816001019080519060200190610390929190610710565b506040820151816002015560608201518160030190805190602001906103b7929190610710565b5050503373ffffffffffffffffffffffffffffffffffffffff167f5f7e16dc676677766a70e9c5628aa6c54ddb8b6e5188e2ae1e1f17f1ffbea7164284604051610402929190610d02565b60405180910390a25050565b60606002805480602002602001604051908101604052809291908181526020016000905b828210156105e857838290600052602060002090600402016040518060800160405290816000820160009054906101000a900473ffffffffffffffffffffffffffffffffffffffff1673ffffffffffffffffffffffffffffffffffffffff1673ffffffffffffffffffffffffffffffffffffffff1681526020016001820180546104bb90610c4b565b80601f01602080910402602001604051908101604052809291908181526020018280546104e790610c4b565b80156105345780601f1061050957610100808354040283529160200191610534565b820191906000526020600020905b81548152906001019060200180831161051757829003601f168201915b505050505081526020016002820154815260200160038201805461055790610c4b565b80601f016020809104026020016040519081016040528092919081815260200182805461058390610c4b565b80156105d05780601f106105a5576101008083540402835291602001916105d0565b820191906000526020600020905b8154815290600101906020018083116105b357829003601f168201915b50505050508152505081526020019060010190610432565b50505050905090565b80600160003373ffffffffffffffffffffffffffffffffffffffff1673ffffffffffffffffffffffffffffffffffffffff1681526020019081526020016000209080519060200190610644929190610710565b5050565b6106e283838360405160240161066093929190610d41565b6040516020818303038152906040527fe0e9ad4f000000000000000000000000000000000000000000000000000000007bffffffffffffffffffffffffffffffffffffffffffffffffffffffff19166020820180517bffffffffffffffffffffffffffffffffffffffffffffffffffffffff83818316178352505050506106e7565b505050565b60008151905060006a636f6e736f6c652e6c6f679050602083016000808483855afa5050505050565b82805461071c90610c4b565b90600052602060002090601f01602090048101928261073e5760008555610785565b82601f1061075757805160ff1916838001178555610785565b82800160010185558215610785579182015b82811115610784578251825591602001919060010190610769565b5b5090506107929190610796565b5090565b5b808211156107af576000816000905550600101610797565b5090565b600081519050919050565b600082825260208201905092915050565b60005b838110156107ed5780820151818401526020810190506107d2565b838111156107fc576000848401525b50505050565b6000601f19601f8301169050919050565b600061081e826107b3565b61082881856107be565b93506108388185602086016107cf565b61084181610802565b840191505092915050565b600060208201905081810360008301526108668184610813565b905092915050565b6000819050919050565b6108818161086e565b82525050565b600060208201905061089c6000830184610878565b92915050565b6000604051905090565b600080fd5b600080fd5b600080fd5b600080fd5b7f4e487b7100000000000000000000000000000000000000000000000000000000600052604160045260246000fd5b6108f882610802565b810181811067ffffffffffffffff82111715610917576109166108c0565b5b80604052505050565b600061092a6108a2565b905061093682826108ef565b919050565b600067ffffffffffffffff821115610956576109556108c0565b5b61095f82610802565b9050602081019050919050565b82818337600083830152505050565b600061098e6109898461093b565b610920565b9050828152602081018484840111156109aa576109a96108bb565b5b6109b584828561096c565b509392505050565b600082601f8301126109d2576109d16108b6565b5b81356109e284826020860161097b565b91505092915050565b600060208284031215610a0157610a006108ac565b5b600082013567ffffffffffffffff811115610a1f57610a1e6108b1565b5b610a2b848285016109bd565b91505092915050565b600081519050919050565b600082825260208201905092915050565b6000819050602082019050919050565b600073ffffffffffffffffffffffffffffffffffffffff82169050919050565b6000610a8b82610a60565b9050919050565b610a9b81610a80565b82525050565b600082825260208201905092915050565b6000610abd826107b3565b610ac78185610aa1565b9350610ad78185602086016107cf565b610ae081610802565b840191505092915050565b610af48161086e565b82525050565b6000608083016000830151610b126000860182610a92565b5060208301518482036020860152610b2a8282610ab2565b9150506040830151610b3f6040860182610aeb565b5060608301518482036060860152610b578282610ab2565b9150508091505092915050565b6000610b708383610afa565b905092915050565b6000602082019050919050565b6000610b9082610a34565b610b9a8185610a3f565b935083602082028501610bac85610a50565b8060005b85811015610be85784840389528151610bc98582610b64565b9450610bd483610b78565b925060208a01995050600181019050610bb0565b50829750879550505050505092915050565b60006020820190508181036000830152610c148184610b85565b905092915050565b7f4e487b7100000000000000000000000000000000000000000000000000000000600052602260045260246000fd5b60006002820490506001821680610c6357607f821691505b60208210811415610c7757610c76610c1c565b5b50919050565b7f4e487b7100000000000000000000000000000000000000000000000000000000600052601160045260246000fd5b6000610cb78261086e565b9150610cc28361086e565b9250827fffffffffffffffffffffffffffffffffffffffffffffffffffffffffffffffff03821115610cf757610cf6610c7d565b5b828201905092915050565b6000604082019050610d176000830185610878565b8181036020830152610d298184610813565b90509392505050565b610d3b81610a80565b82525050565b60006060820190508181036000830152610d5b8186610813565b9050610d6a6020830185610d32565b8181036040830152610d7c8184610813565b905094935050505056fe2573207761766520757320776974686f20666f6c6c6f77696e67206d6573736167653a20257321a2646970667358221220afa22cbcb3a5b5e1d803aca0c02a5731e938b00e38d9f9249f0c716a861ae24f64736f6c63430008090033",
  "linkReferences": {},
  "deployedLinkReferences": {}
}