{
  "_format": "hh-sol-artifact-1",
  "contractName": "WavePortal",
  "sourceName": "contracts/WavePortal.sol",
  "abi": [
    {
      "inputs": [],
      "stateMutability": "payable",
      "type": "constructor"
    },
    {
      "anonymous": false,
      "inputs": [
        {
          "indexed": true,
          "internalType": "address",
          "name": "from",
          "type": "address"
        },
        {
          "indexed": false,
          "internalType": "uint256",
          "name": "timestamp",
          "type": "uint256"
        },
        {
          "indexed": false,
          "internalType": "string",
          "name": "message",
          "type": "string"
        }
      ],
      "name": "NewWave",
      "type": "event"
    },
    {
      "inputs": [],
      "name": "getAllWaves",
      "outputs": [
        {
          "components": [
            {
              "internalType": "address",
              "name": "waver",
              "type": "address"
            },
            {
              "internalType": "string",
              "name": "name",
              "type": "string"
            },
            {
              "internalType": "uint256",
              "name": "timestamp",
              "type": "uint256"
            },
            {
              "internalType": "string",
              "name": "message",
              "type": "string"
            }
          ],
          "internalType": "struct WavePortal.Wave[]",
          "name": "",
          "type": "tuple[]"
        }
      ],
      "stateMutability": "view",
      "type": "function"
    },
    {
      "inputs": [],
      "name": "getName",
      "outputs": [
        {
          "internalType": "string",
          "name": "",
          "type": "string"
        }
      ],
      "stateMutability": "view",
      "type": "function"
    },
    {
      "inputs": [
        {
          "internalType": "string",
          "name": "_name",
          "type": "string"
        }
      ],
      "name": "setName",
      "outputs": [],
      "stateMutability": "nonpayable",
      "type": "function"
    },
    {
      "inputs": [],
      "name": "totalWaves",
      "outputs": [
        {
          "internalType": "uint256",
          "name": "",
          "type": "uint256"
        }
      ],
      "stateMutability": "view",
      "type": "function"
    },
    {
      "inputs": [
        {
          "internalType": "string",
          "name": "_message",
          "type": "string"
        }
      ],
      "name": "wave",
      "outputs": [],
      "stateMutability": "nonpayable",
      "type": "function"
    }
  ],
  "bytecode": "0x6080604052610ffd806100136000396000f3fe608060405234801561001057600080fd5b50600436106100575760003560e01c806317d7de7c1461005c578063291bcab31461007a578063449d46c014610098578063bd43a908146100b4578063c47f0027146100d2575b600080fd5b6100646100ee565b6040516100719190610948565b60405180910390f35b6100826101bd565b60405161008f9190610983565b60405180910390f35b6100b260048036038101906100ad9190610ae7565b6101c3565b005b6100bc61050a565b6040516100c99190610cf6565b60405180910390f35b6100ec60048036038101906100e79190610ae7565b6106ed565b005b6060600160003373ffffffffffffffffffffffffffffffffffffffff1673ffffffffffffffffffffffffffffffffffffffff168152602001908152602001600020805461013a90610d47565b80601f016020809104026020016040519081016040528092919081815260200182805461016690610d47565b80156101b35780601f10610188576101008083540402835291602001916101b3565b820191906000526020600020905b81548152906001019060200180831161019657829003601f168201915b5050505050905090565b60005481565b60016000808282546101d59190610da8565b925050819055506101ff604051806060016040528060278152602001610fa1602791393383610744565b6000600160003373ffffffffffffffffffffffffffffffffffffffff1673ffffffffffffffffffffffffffffffffffffffff168152602001908152602001600020805461024b90610d47565b80601f016020809104026020016040519081016040528092919081815260200182805461027790610d47565b80156102c45780601f10610299576101008083540402835291602001916102c4565b820191906000526020600020905b8154815290600101906020018083116102a757829003601f168201915b50505050509050600260405180608001604052803373ffffffffffffffffffffffffffffffffffffffff16815260200183815260200142815260200184815250908060018154018082558091505060019003906000526020600020906004020160009091909190915060008201518160000160006101000a81548173ffffffffffffffffffffffffffffffffffffffff021916908373ffffffffffffffffffffffffffffffffffffffff160217905550602082015181600101908051906020019061039092919061080c565b506040820151816002015560608201518160030190805190602001906103b792919061080c565b5050503373ffffffffffffffffffffffffffffffffffffffff167f5f7e16dc676677766a70e9c5628aa6c54ddb8b6e5188e2ae1e1f17f1ffbea7164284604051610402929190610dfe565b60405180910390a247655af3107a40001115610453576040517f08c379a000000000000000000000000000000000000000000000000000000000815260040161044a90610e7a565b60405180910390fd5b60003373ffffffffffffffffffffffffffffffffffffffff16655af3107a400060405161047f90610ecb565b60006040518083038185875af1925050503d80600081146104bc576040519150601f19603f3d011682016040523d82523d6000602084013e6104c1565b606091505b5050905080610505576040517f08c379a00000000000000000000000000000000000000000000000000000000081526004016104fc90610f2c565b60405180910390fd5b505050565b60606002805480602002602001604051908101604052809291908181526020016000905b828210156106e457838290600052602060002090600402016040518060800160405290816000820160009054906101000a900473ffffffffffffffffffffffffffffffffffffffff1673ffffffffffffffffffffffffffffffffffffffff1673ffffffffffffffffffffffffffffffffffffffff1681526020016001820180546105b790610d47565b80601f01602080910402602001604051908101604052809291908181526020018280546105e390610d47565b80156106305780601f1061060557610100808354040283529160200191610630565b820191906000526020600020905b81548152906001019060200180831161061357829003601f168201915b505050505081526020016002820154815260200160038201805461065390610d47565b80601f016020809104026020016040519081016040528092919081815260200182805461067f90610d47565b80156106cc5780601f106106a1576101008083540402835291602001916106cc565b820191906000526020600020905b8154815290600101906020018083116106af57829003601f168201915b5050505050815250508152602001906001019061052e565b50505050905090565b80600160003373ffffffffffffffffffffffffffffffffffffffff1673ffffffffffffffffffffffffffffffffffffffff168152602001908152602001600020908051906020019061074092919061080c565b5050565b6107de83838360405160240161075c93929190610f5b565b6040516020818303038152906040527fe0e9ad4f000000000000000000000000000000000000000000000000000000007bffffffffffffffffffffffffffffffffffffffffffffffffffffffff19166020820180517bffffffffffffffffffffffffffffffffffffffffffffffffffffffff83818316178352505050506107e3565b505050565b60008151905060006a636f6e736f6c652e6c6f679050602083016000808483855afa5050505050565b82805461081890610d47565b90600052602060002090601f01602090048101928261083a5760008555610881565b82601f1061085357805160ff1916838001178555610881565b82800160010185558215610881579182015b82811115610880578251825591602001919060010190610865565b5b50905061088e9190610892565b5090565b5b808211156108ab576000816000905550600101610893565b5090565b600081519050919050565b600082825260208201905092915050565b60005b838110156108e95780820151818401526020810190506108ce565b838111156108f8576000848401525b50505050565b6000601f19601f8301169050919050565b600061091a826108af565b61092481856108ba565b93506109348185602086016108cb565b61093d816108fe565b840191505092915050565b60006020820190508181036000830152610962818461090f565b905092915050565b6000819050919050565b61097d8161096a565b82525050565b60006020820190506109986000830184610974565b92915050565b6000604051905090565b600080fd5b600080fd5b600080fd5b600080fd5b7f4e487b7100000000000000000000000000000000000000000000000000000000600052604160045260246000fd5b6109f4826108fe565b810181811067ffffffffffffffff82111715610a1357610a126109bc565b5b80604052505050565b6000610a2661099e565b9050610a3282826109eb565b919050565b600067ffffffffffffffff821115610a5257610a516109bc565b5b610a5b826108fe565b9050602081019050919050565b82818337600083830152505050565b6000610a8a610a8584610a37565b610a1c565b905082815260208101848484011115610aa657610aa56109b7565b5b610ab1848285610a68565b509392505050565b600082601f830112610ace57610acd6109b2565b5b8135610ade848260208601610a77565b91505092915050565b600060208284031215610afd57610afc6109a8565b5b600082013567ffffffffffffffff811115610b1b57610b1a6109ad565b5b610b2784828501610ab9565b91505092915050565b600081519050919050565b600082825260208201905092915050565b6000819050602082019050919050565b600073ffffffffffffffffffffffffffffffffffffffff82169050919050565b6000610b8782610b5c565b9050919050565b610b9781610b7c565b82525050565b600082825260208201905092915050565b6000610bb9826108af565b610bc38185610b9d565b9350610bd38185602086016108cb565b610bdc816108fe565b840191505092915050565b610bf08161096a565b82525050565b6000608083016000830151610c0e6000860182610b8e565b5060208301518482036020860152610c268282610bae565b9150506040830151610c3b6040860182610be7565b5060608301518482036060860152610c538282610bae565b9150508091505092915050565b6000610c6c8383610bf6565b905092915050565b6000602082019050919050565b6000610c8c82610b30565b610c968185610b3b565b935083602082028501610ca885610b4c565b8060005b85811015610ce45784840389528151610cc58582610c60565b9450610cd083610c74565b925060208a01995050600181019050610cac565b50829750879550505050505092915050565b60006020820190508181036000830152610d108184610c81565b905092915050565b7f4e487b7100000000000000000000000000000000000000000000000000000000600052602260045260246000fd5b60006002820490506001821680610d5f57607f821691505b60208210811415610d7357610d72610d18565b5b50919050565b7f4e487b7100000000000000000000000000000000000000000000000000000000600052601160045260246000fd5b6000610db38261096a565b9150610dbe8361096a565b9250827fffffffffffffffffffffffffffffffffffffffffffffffffffffffffffffffff03821115610df357610df2610d79565b5b828201905092915050565b6000604082019050610e136000830185610974565b8181036020830152610e25818461090f565b90509392505050565b7f496e73756666696369656e7420636f6e74726163742062616c616e6365000000600082015250565b6000610e64601d836108ba565b9150610e6f82610e2e565b602082019050919050565b60006020820190508181036000830152610e9381610e57565b9050919050565b600081905092915050565b50565b6000610eb5600083610e9a565b9150610ec082610ea5565b600082019050919050565b6000610ed682610ea8565b9150819050919050565b7f4661696c656420746f2073656e64204574686572000000000000000000000000600082015250565b6000610f166014836108ba565b9150610f2182610ee0565b602082019050919050565b60006020820190508181036000830152610f4581610f09565b9050919050565b610f5581610b7c565b82525050565b60006060820190508181036000830152610f75818661090f565b9050610f846020830185610f4c565b8181036040830152610f96818461090f565b905094935050505056fe2573207761766520757320776974686f20666f6c6c6f77696e67206d6573736167653a20257321a2646970667358221220fb8ec760c003a7eec87216413383e83e9aded9f557841c7f6413b66c0b597ccf64736f6c63430008090033",
  "linkReferences": {},
  "deployedLinkReferences": {}
}