{
  "_format": "hh-sol-artifact-1",
  "contractName": "WavePortal",
  "sourceName": "contracts/WavePortal.sol",
  "abi": [
    {
      "inputs": [],
      "stateMutability": "payable",
      "type": "constructor"
    },
    {
      "anonymous": false,
      "inputs": [
        {
          "indexed": true,
          "internalType": "address",
          "name": "from",
          "type": "address"
        },
        {
          "indexed": false,
          "internalType": "uint256",
          "name": "timestamp",
          "type": "uint256"
        },
        {
          "indexed": false,
          "internalType": "string",
          "name": "message",
          "type": "string"
        },
        {
          "indexed": false,
          "internalType": "string",
          "name": "name",
          "type": "string"
        }
      ],
      "name": "NewWave",
      "type": "event"
    },
    {
      "inputs": [],
      "name": "getAllWaves",
      "outputs": [
        {
          "components": [
            {
              "internalType": "address",
              "name": "waver",
              "type": "address"
            },
            {
              "internalType": "string",
              "name": "name",
              "type": "string"
            },
            {
              "internalType": "uint256",
              "name": "timestamp",
              "type": "uint256"
            },
            {
              "internalType": "string",
              "name": "message",
              "type": "string"
            }
          ],
          "internalType": "struct WavePortal.Wave[]",
          "name": "",
          "type": "tuple[]"
        }
      ],
      "stateMutability": "view",
      "type": "function"
    },
    {
      "inputs": [],
      "name": "getName",
      "outputs": [
        {
          "internalType": "string",
          "name": "",
          "type": "string"
        }
      ],
      "stateMutability": "view",
      "type": "function"
    },
    {
      "inputs": [
        {
          "internalType": "address",
          "name": "",
          "type": "address"
        }
      ],
      "name": "lastWavedAt",
      "outputs": [
        {
          "internalType": "uint256",
          "name": "",
          "type": "uint256"
        }
      ],
      "stateMutability": "view",
      "type": "function"
    },
    {
      "inputs": [
        {
          "internalType": "string",
          "name": "_name",
          "type": "string"
        }
      ],
      "name": "setName",
      "outputs": [],
      "stateMutability": "nonpayable",
      "type": "function"
    },
    {
      "inputs": [],
      "name": "totalWaves",
      "outputs": [
        {
          "internalType": "uint256",
          "name": "",
          "type": "uint256"
        }
      ],
      "stateMutability": "view",
      "type": "function"
    },
    {
      "inputs": [
        {
          "internalType": "string",
          "name": "_message",
          "type": "string"
        }
      ],
      "name": "wave",
      "outputs": [],
      "stateMutability": "nonpayable",
      "type": "function"
    }
  ],
  "bytecode": "0x60806040526064444262000014919062000065565b620000209190620000f1565b60008190555062000129565b6000819050919050565b7f4e487b7100000000000000000000000000000000000000000000000000000000600052601160045260246000fd5b600062000072826200002c565b91506200007f836200002c565b9250827fffffffffffffffffffffffffffffffffffffffffffffffffffffffffffffffff03821115620000b757620000b662000036565b5b828201905092915050565b7f4e487b7100000000000000000000000000000000000000000000000000000000600052601260045260246000fd5b6000620000fe826200002c565b91506200010b836200002c565b9250826200011e576200011d620000c2565b5b828206905092915050565b6114d080620001396000396000f3fe608060405234801561001057600080fd5b50600436106100625760003560e01c806317d7de7c14610067578063291bcab314610085578063449d46c0146100a3578063a42a4663146100bf578063bd43a908146100ef578063c47f00271461010d575b600080fd5b61006f610129565b60405161007c9190610c5c565b60405180910390f35b61008d6101f8565b60405161009a9190610c97565b60405180910390f35b6100bd60048036038101906100b89190610dfb565b6101fe565b005b6100d960048036038101906100d49190610ea2565b6106ce565b6040516100e69190610c97565b60405180910390f35b6100f76106e6565b6040516101049190611063565b60405180910390f35b61012760048036038101906101229190610dfb565b6108c9565b005b6060600260003373ffffffffffffffffffffffffffffffffffffffff1673ffffffffffffffffffffffffffffffffffffffff1681526020019081526020016000208054610175906110b4565b80601f01602080910402602001604051908101604052809291908181526020018280546101a1906110b4565b80156101ee5780601f106101c3576101008083540402835291602001916101ee565b820191906000526020600020905b8154815290600101906020018083116101d157829003601f168201915b5050505050905090565b60015481565b426078600360003373ffffffffffffffffffffffffffffffffffffffff1673ffffffffffffffffffffffffffffffffffffffff1681526020019081526020016000205461024b9190611115565b1061028b576040517f08c379a0000000000000000000000000000000000000000000000000000000008152600401610282906111dd565b60405180910390fd5b42600360003373ffffffffffffffffffffffffffffffffffffffff1673ffffffffffffffffffffffffffffffffffffffff1681526020019081526020016000208190555060018060008282546102e19190611115565b9250508190555061030b604051806060016040528060268152602001611475602691393383610920565b6000600260003373ffffffffffffffffffffffffffffffffffffffff1673ffffffffffffffffffffffffffffffffffffffff1681526020019081526020016000208054610357906110b4565b80601f0160208091040260200160405190810160405280929190818152602001828054610383906110b4565b80156103d05780601f106103a5576101008083540402835291602001916103d0565b820191906000526020600020905b8154815290600101906020018083116103b357829003601f168201915b50505050509050600460405180608001604052803373ffffffffffffffffffffffffffffffffffffffff16815260200183815260200142815260200184815250908060018154018082558091505060019003906000526020600020906004020160009091909190915060008201518160000160006101000a81548173ffffffffffffffffffffffffffffffffffffffff021916908373ffffffffffffffffffffffffffffffffffffffff160217905550602082015181600101908051906020019061049c929190610b20565b506040820151816002015560608201518160030190805190602001906104c3929190610b20565b505050606460005442446104d79190611115565b6104e19190611115565b6104eb919061122c565b6000819055506105326040518060400160405280601d81526020017f232052616e646f6d206e756d6265722067656e6572617465643a2025640000008152506000546109bf565b6032600054116106785761057b6040518060400160405280600881526020017f25732077696e732100000000000000000000000000000000000000000000000081525033610a5b565b47655af3107a400011156105c4576040517f08c379a00000000000000000000000000000000000000000000000000000000081526004016105bb906112a9565b60405180910390fd5b60003373ffffffffffffffffffffffffffffffffffffffff16655af3107a40006040516105f0906112fa565b60006040518083038185875af1925050503d806000811461062d576040519150601f19603f3d011682016040523d82523d6000602084013e610632565b606091505b5050905080610676576040517f08c379a000000000000000000000000000000000000000000000000000000000815260040161066d9061135b565b60405180910390fd5b505b3373ffffffffffffffffffffffffffffffffffffffff167f0646f10b0148fe8db9a43af10b6956b53e1478c47afc7132c17e243449dfd3394284846040516106c29392919061137b565b60405180910390a25050565b60036020528060005260406000206000915090505481565b60606004805480602002602001604051908101604052809291908181526020016000905b828210156108c057838290600052602060002090600402016040518060800160405290816000820160009054906101000a900473ffffffffffffffffffffffffffffffffffffffff1673ffffffffffffffffffffffffffffffffffffffff1673ffffffffffffffffffffffffffffffffffffffff168152602001600182018054610793906110b4565b80601f01602080910402602001604051908101604052809291908181526020018280546107bf906110b4565b801561080c5780601f106107e15761010080835404028352916020019161080c565b820191906000526020600020905b8154815290600101906020018083116107ef57829003601f168201915b505050505081526020016002820154815260200160038201805461082f906110b4565b80601f016020809104026020016040519081016040528092919081815260200182805461085b906110b4565b80156108a85780601f1061087d576101008083540402835291602001916108a8565b820191906000526020600020905b81548152906001019060200180831161088b57829003601f168201915b5050505050815250508152602001906001019061070a565b50505050905090565b80600260003373ffffffffffffffffffffffffffffffffffffffff1673ffffffffffffffffffffffffffffffffffffffff168152602001908152602001600020908051906020019061091c929190610b20565b5050565b6109ba838383604051602401610938939291906113cf565b6040516020818303038152906040527fe0e9ad4f000000000000000000000000000000000000000000000000000000007bffffffffffffffffffffffffffffffffffffffffffffffffffffffff19166020820180517bffffffffffffffffffffffffffffffffffffffffffffffffffffffff8381831617835250505050610af7565b505050565b610a5782826040516024016109d5929190611414565b6040516020818303038152906040527f9710a9d0000000000000000000000000000000000000000000000000000000007bffffffffffffffffffffffffffffffffffffffffffffffffffffffff19166020820180517bffffffffffffffffffffffffffffffffffffffffffffffffffffffff8381831617835250505050610af7565b5050565b610af38282604051602401610a71929190611444565b6040516020818303038152906040527f319af333000000000000000000000000000000000000000000000000000000007bffffffffffffffffffffffffffffffffffffffffffffffffffffffff19166020820180517bffffffffffffffffffffffffffffffffffffffffffffffffffffffff8381831617835250505050610af7565b5050565b60008151905060006a636f6e736f6c652e6c6f679050602083016000808483855afa5050505050565b828054610b2c906110b4565b90600052602060002090601f016020900481019282610b4e5760008555610b95565b82601f10610b6757805160ff1916838001178555610b95565b82800160010185558215610b95579182015b82811115610b94578251825591602001919060010190610b79565b5b509050610ba29190610ba6565b5090565b5b80821115610bbf576000816000905550600101610ba7565b5090565b600081519050919050565b600082825260208201905092915050565b60005b83811015610bfd578082015181840152602081019050610be2565b83811115610c0c576000848401525b50505050565b6000601f19601f8301169050919050565b6000610c2e82610bc3565b610c388185610bce565b9350610c48818560208601610bdf565b610c5181610c12565b840191505092915050565b60006020820190508181036000830152610c768184610c23565b905092915050565b6000819050919050565b610c9181610c7e565b82525050565b6000602082019050610cac6000830184610c88565b92915050565b6000604051905090565b600080fd5b600080fd5b600080fd5b600080fd5b7f4e487b7100000000000000000000000000000000000000000000000000000000600052604160045260246000fd5b610d0882610c12565b810181811067ffffffffffffffff82111715610d2757610d26610cd0565b5b80604052505050565b6000610d3a610cb2565b9050610d468282610cff565b919050565b600067ffffffffffffffff821115610d6657610d65610cd0565b5b610d6f82610c12565b9050602081019050919050565b82818337600083830152505050565b6000610d9e610d9984610d4b565b610d30565b905082815260208101848484011115610dba57610db9610ccb565b5b610dc5848285610d7c565b509392505050565b600082601f830112610de257610de1610cc6565b5b8135610df2848260208601610d8b565b91505092915050565b600060208284031215610e1157610e10610cbc565b5b600082013567ffffffffffffffff811115610e2f57610e2e610cc1565b5b610e3b84828501610dcd565b91505092915050565b600073ffffffffffffffffffffffffffffffffffffffff82169050919050565b6000610e6f82610e44565b9050919050565b610e7f81610e64565b8114610e8a57600080fd5b50565b600081359050610e9c81610e76565b92915050565b600060208284031215610eb857610eb7610cbc565b5b6000610ec684828501610e8d565b91505092915050565b600081519050919050565b600082825260208201905092915050565b6000819050602082019050919050565b610f0481610e64565b82525050565b600082825260208201905092915050565b6000610f2682610bc3565b610f308185610f0a565b9350610f40818560208601610bdf565b610f4981610c12565b840191505092915050565b610f5d81610c7e565b82525050565b6000608083016000830151610f7b6000860182610efb565b5060208301518482036020860152610f938282610f1b565b9150506040830151610fa86040860182610f54565b5060608301518482036060860152610fc08282610f1b565b9150508091505092915050565b6000610fd98383610f63565b905092915050565b6000602082019050919050565b6000610ff982610ecf565b6110038185610eda565b93508360208202850161101585610eeb565b8060005b8581101561105157848403895281516110328582610fcd565b945061103d83610fe1565b925060208a01995050600181019050611019565b50829750879550505050505092915050565b6000602082019050818103600083015261107d8184610fee565b905092915050565b7f4e487b7100000000000000000000000000000000000000000000000000000000600052602260045260246000fd5b600060028204905060018216806110cc57607f821691505b602082108114156110e0576110df611085565b5b50919050565b7f4e487b7100000000000000000000000000000000000000000000000000000000600052601160045260246000fd5b600061112082610c7e565b915061112b83610c7e565b9250827fffffffffffffffffffffffffffffffffffffffffffffffffffffffffffffffff038211156111605761115f6110e6565b5b828201905092915050565b7f57616974206d6f72652032206d696e7574657320666f72206e6578742077617660008201527f65203d4400000000000000000000000000000000000000000000000000000000602082015250565b60006111c7602483610bce565b91506111d28261116b565b604082019050919050565b600060208201905081810360008301526111f6816111ba565b9050919050565b7f4e487b7100000000000000000000000000000000000000000000000000000000600052601260045260246000fd5b600061123782610c7e565b915061124283610c7e565b925082611252576112516111fd565b5b828206905092915050565b7f496e73756666696369656e7420636f6e74726163742062616c616e6365000000600082015250565b6000611293601d83610bce565b915061129e8261125d565b602082019050919050565b600060208201905081810360008301526112c281611286565b9050919050565b600081905092915050565b50565b60006112e46000836112c9565b91506112ef826112d4565b600082019050919050565b6000611305826112d7565b9150819050919050565b7f4661696c656420746f2073656e64204574686572000000000000000000000000600082015250565b6000611345601483610bce565b91506113508261130f565b602082019050919050565b6000602082019050818103600083015261137481611338565b9050919050565b60006060820190506113906000830186610c88565b81810360208301526113a28185610c23565b905081810360408301526113b68184610c23565b9050949350505050565b6113c981610e64565b82525050565b600060608201905081810360008301526113e98186610c23565b90506113f860208301856113c0565b818103604083015261140a8184610c23565b9050949350505050565b6000604082019050818103600083015261142e8185610c23565b905061143d6020830184610c88565b9392505050565b6000604082019050818103600083015261145e8185610c23565b905061146d60208301846113c0565b939250505056fe25732077617665207573207769746820666f6c6c6f77696e67206d6573736167653a20257321a2646970667358221220f59372a66cb1d3c4600e506ae7933740ad67acd87f17b5ae3d84570f173fe23164736f6c63430008090033",
  "linkReferences": {},
  "deployedLinkReferences": {}
}